:020000040000FA
:10000000900300106D0100007101000073010000F9
:100010007501000077010000790100000000000078
:100020000000000000000000000000007B01000054
:100030007D010000000000007F0100008101000040
:1000400083010000231300008301000083010000EE
:100050008301000083010000830100008301000090
:100060008301000083010000830100008301000080
:100070008301000083010000830100008301000070
:100080008301000083010000830100008301000060
:100090008301000083010000830100008301000050
:1000A000BF0F0000830100008301000083010000F6
:1000B0008301000083010000830100008301000030
:1000C00083010000830100008301000000F002F8BA
:1000D00000F03CF80AA090E8000C82448344AAF1A6
:1000E0000107DA4501D100F031F8AFF2090EBAE8A4
:1000F0000F0013F0010F18BFFB1A43F0010318475C
:10010000182B0000482B0000103A24BF78C878C193
:10011000FAD8520724BF30C830C144BF04680C600D
:10012000704700000023002400250026103A28BF55
:1001300078C1FBD8520728BF30C148BF0B60704759
:100140001FB502F0C5FC1FBD10B510BD00F0A1F831
:100150001146FFF7F5FF01F0FFF900F0BFF803B417
:10016000FFF7F2FF03BC02F0FFF900000848004768
:10017000FEE7FEE7FEE7FEE7FEE7FEE7FEE7FEE757
:10018000FEE7FEE703480449024A044B70470000BB
:10019000CD000000900100109003001090010010AD
:1001A00035488088B0F5007F38D133488078002802
:1001B00034D13148C078012802D002282DD10AE07C
:1001C0002D484078812805D12C4800782C490870AA
:1001D0000120704721E028484078812806D08228F5
:1001E0000AD083280DD0842816D110E02548008835
:1001F000234908800120ECE70020214908800120E4
:10020000E7E74FF480701E4908800120E1E70420F1
:100210001B4908800120DCE700BF00BF0020D8E7B1
:1002200015488088B0F5007F20D113488078E8B960
:100230001148C078012802D0022816D10AE00E48E1
:100240004078012805D10E4800780C49087001203B
:1002500070470AE008484078012805D1084800881E
:10026000084908800120F3E700BF00BF0020EFE746
:1002700000207047002070472C0000104E00001036
:10028000700000100800001000BFFEE770477047C4
:100290007047754600F028F8AE460500694653469B
:1002A00020F00700854618B020B5FFF76BFFBDE8CA
:1002B00020404FF000064FF000074FF000084FF0CD
:1002C000000B21F00701AC46ACE8C009ACE8C0095E
:1002D000ACE8C009ACE8C0098D4670470446AFF3EE
:1002E00000802046FFF73BFF0048704730010010B8
:1002F000014870477047000034010010FFFFFFFF06
:1003000020208449086000BF8248006810F0400F38
:10031000FAD00320804908604FF000007F49C1F8FF
:10032000A8017F4908604FF001007E4908607E48BF
:100330007E4908604FF00100A1F1040108604FF010
:10034000AA007B4908604FF055007449C1F88C0041
:1003500000BF7848006810F0806FFAD0032076491B
:1003600008604FF0AA006D49C1F88C004FF05500AD
:100370006F4908604FF02300704908604FF001009A
:10038000A1F1040108604FF0AA006D4908604FF028
:100390005500086000BF6B48006810F4806FFAD009
:1003A0000320694908604FF0AA005C49C1F8AC001D
:1003B0004FF05500624908606448654908604FF095
:1003C00000005649C1F8C8010846D0F88800C0F3BB
:1003D0000160032868D15348006810F0030006D07C
:1003E000012823D002283FD003285CD100E000BFC1
:1003F00050480068C0F30E0000F101004FEA4001D0
:100400004648D0F88800C0F3074000F10100B1FB76
:10041000F0F1504801FB00F13F480068C0B200F124
:100420000100B1FBF0F04C4908603CE04148006835
:10043000C0F30E0000F101004FEA40013748D0F848
:100440008800C0F3074000F10100B1FBF0F1434820
:1004500001FB00F130480068C0B200F10100B1FBBF
:10046000F0F03D4908601EE032480068C0F30E001D
:1004700000F101004FEA40012848D0F88800C0F39D
:10048000074000F10100B1FBF0F14FF4FA4001FB2D
:1004900000F121480068C0B200F10100B1FBF0F0AA
:1004A0002D49086000BF2FE01E48006810F00300CF
:1004B00006D0012810D0022819D0032823D100E04B
:1004C00000BF15480068C0B200F101002149B1FB2E
:1004D000F0F02149086016E00F480068C0B200F152
:1004E00001001E49B1FBF0F01B4908600BE00A480F
:1004F0000068C0B200F101004FF4FA41B1FBF0F026
:100500001549086000BF00BF43F23A000349086084
:1005100070470000A0C10F4004C10F4000C00F4051
:10052000ACC10F400CC10F406300050084C00F40F8
:100530008CC00F4088C00F4080C00F40A4C00F4047
:10054000ACC00F40A8C00F40A0C00F40DE872804F9
:10055000C4C00F4000093D0000000010001BB700A0
:100560000020EB490880EB490870EB4908704FF018
:100570000110EA4908600020E9490860E94908607B
:10058000704710B5E849002000F08BFB10BD10B596
:10059000E6488088402801DD402401E0E348848863
:1005A000E24822460168802000F0AAFB0446DF48AA
:1005B00000682044DD49086008468088001B888068
:1005C00010BD10B5D9480168002000F06AFB044650
:1005D000D64800682044D549086008468088001B3A
:1005E000888010BD10B500221146802000F088FBE5
:1005F00010BD10B5CE49002000F053FB10BD10B562
:100600000446082C6FD2DFE804F06E04F2F16E6E3F
:10061000F0EFFFF7B6FFC4490978C80900F0F8FA0F
:10062000C148C088C1498880BF480078C0F34110E4
:1006300010B1012879D190E0BB4840780C2875D2E0
:10064000DFE800F0060D8815881D333A41555C81BE
:1006500001F0F2FF00B9E1E0FFF799FF7BE0002035
:1006600002F04AF800B9D9E0FFF7BCFF73E00120BF
:1006700002F042F800B9D1E0FFF7B4FF6BE000BF31
:10068000A9480078C0F3040030B9A748807840F04A
:100690008000A049087001E0002001E000BF0120B7
:1006A00000B9BBE0FFF79EFF55E001F069FF00B91C
:1006B000B4E0FFF76CFF4EE0002000F0D1FA00201C
:1006C0009A49888047E000BF97480078C0F304004B
:1006D00018B991489549086001E0002001E000BF89
:1006E000012008B99AE010E1FFF751FF33E002F072
:1006F00079F800B992E0FFF775FF2CE000BF8A4857
:100700000078C0F30400012814D18348007870B148
:100710008548007987490978884208DA8248007953
:10072000854908448149086003E076E012E0002032
:1007300004E001E0002001E000BF012000B96DE00D
:10074000FFF725FF07E002F029F900B966E0FFF79F
:1007500049FF00E062E000BF67E073480078C0F343
:10076000040020B1012803D0022854D12DE055E027
:100770006D48007938B16C480079012803D06A4887
:100780000079022820D16848407882280BD004DC08
:10079000012814D0812816D104E0832804D08428AD
:1007A00011D102E000BF00BF00BFFFF7F9FC28B184
:1007B0005F485E490860FFF7EAFE2DE003E05C4811
:1007C0005A49086028E000BF28E05748407882284E
:1007D0000FD004DC012818D081281AD108E0832822
:1007E00008D0842815D106E08BE086E06DE01EE09D
:1007F00000BF00BF00BFFFF73BFD28B14C484B498D
:100800000860FFF7C4FE07E003E049484749086075
:1008100002E000BF02E001E007E000BF802000F03E
:100820001FFA00204149888000BF00BF6DE03E48AC
:100830000078C00946D13D488088002844D0FFF7A1
:10084000C0FE3A48808800283ED137480078C0F37F
:10085000411010B1012833D100E0DFE732480078C1
:10086000C0F3040020B1012803D0022826D118E0EB
:10087000D4E72D48007938B12B480079012803D0FE
:100880002948007902280BD127484078012806D151
:10089000FFF7C6FC10B1FFF7A5FE10E000BF00BFD8
:1008A000BCE721484078012806D1FFF7E3FC10B1EE
:1008B000FFF798FE03E000BF00BFAFE7AEE700E040
:1008C000ACE701E0FFF795FE1FE017480078C0098C
:1008D000012802D1FFF75BFE0EE00E48007810F011
:1008E000800F09D00B48007800F07F00094908709C
:1008F0000846007800F083F807E0002000F0BDF91A
:1009000003E0802000F0B9F900BF00BF10BD000077
:100910000C0000100E0000100F000010100000105E
:1009200014000010180000102C000010240000100B
:10093000700000101C0000101D00001001460A0786
:10094000D00E11F0800F00D0401C70471021FF4ADC
:100950001160FF49C1F8100200BFFE49096811F09B
:10096000100FFAD070471022F84B1A60F84AC2F8FC
:10097000100200BFF74A126812F0100FFAD01022CE
:10098000F24B1A60F24AC2F8101200BFF14A126824
:1009900012F0100FFAD0704710B503460C46102025
:1009A000EA4908601846FFF7C9FF4FF4A06141EA21
:1009B0000040E749C1F8100200BFE648006810F0A7
:1009C000100FFAD01020E1490860E148C0F8104249
:1009D00000BFE048006810F0100FFAD010BD0146CB
:1009E0003020DA4A1060DA48C0F8101200BFD94847
:1009F000006810F0200FFAD0D7480068704710B593
:100A0000044644F080004FF4807242EA0041D3482B
:100A1000FFF7A9FF44F080004FF4807242EA0041E2
:100A2000CE48FFF7A0FF10BD0021CD4A11604FF066
:100A30004001C74AC2F84C124FF00101C84A116088
:100A40004FF04001C24AC2F84C1200BFC1490968C8
:100A500011F4807FFAD04FF0FF31C24A11606FF07D
:100A60004001BB4AC2F834124FF0FF31B74A11605F
:100A70004FF00D01A2F104021160BB49BB4A1160A5
:100A80004FF0FF31BA4A1160BA4A11604FF040018D
:100A9000A2F1040211604FF0FF31B74A1160B74A6A
:100AA0001160B74A11604FF00701B64A11604FF06C
:100AB0000001B54A11605160084607E00021B34AC1
:100AC00042F82010B24A42F82010401C2028F5D3EA
:100AD000704700B5AF48406820F07050AD4948609D
:100AE0000846406840F0A05048600846C068AA49DF
:100AF0000840A849C8600846C068A8490843A549F5
:100B0000C8600846006920F4402008610846006972
:100B100040F480200861A248006840F00040A149EC
:100B2000C1F8C4004FF01A009F49086000BF9F48F9
:100B3000006800F01A001A28F9D100BF182001211E
:100B4000814040094FF0E02202EB8000C0F8001124
:100B500000BFFFF769FF0020FFF751FF00BD10B590
:100B600004460CB1012000E000204FF4807242EAFC
:100B700000418F48FFF7F7FE10BD7047704700B582
:100B80008C48008810F0020F03D08B498848FFF78B
:100B9000EAFE00BD704710B504460CB1012000E02C
:100BA00000204FF4807242EA00418448FFF7DBFEE8
:100BB00003208349086000BF6648006810F4807F06
:100BC000FAD04FF480706149086010BD10B504463A
:100BD000A078FFF7B3FE0346794801684FF00100A3
:100BE00000FA03F041EA00015948C0F844125C4899
:100BF0000360A0885649C1F84C0200BF5548006800
:100C000010F4807FFAD04FF480705049086010BD16
:100C1000704730B504462046FFF790FE694941EA27
:100C2000004589132846FFF79EFE30BD30B50446C7
:100C30002046FFF783FE634941EA004562492846A2
:100C4000FFF791FE30BD30B504462046FFF776FE33
:100C50005C4941EA004589132846FFF784FE30BD10
:100C600030B504462046FFF769FE564941EA004583
:100C700051492846FFF777FE30BD30B5044620467F
:100C8000FFF75CFE4F4941EA004589132846FFF70C
:100C90006AFE30BD10B504464C492046FFF77CFE85
:100CA00010BDF0B504460D4604F00F00012101EB24
:100CB00080004749086000BF4648066816F4006F88
:100CC000FAD0C6F30906002706E04348006828600A
:100CD00005F1040507F10107F01CB7EB900FF4D301
:100CE00000203B49086041F2482040FA04F010F02F
:100CF000010F03D135492046FFF74EFE3046F0BDC7
:100D0000F0B504460D46164604F00F00022101EB33
:100D100080002F4908600E48C0F824624FF0000799
:100D200006E028682D49086005F1040507F1010770
:100D3000F01CB7EB900FF4D3002025490860284938
:100D40002046FFF729FE3046F0BD000008C20050E3
:100D500000C0005000C2005014C200500005D00076
:100D600048C2005038C200500000082080C2005025
:100D700054C200508CC20050A4C20050B0C20050F7
:100D8000BCC2005094C2005034000010B0000010EB
:100D90000000082000C00240CFFFFFCF100000205D
:100DA000C4C00F4000C00F40F4CF0050F8CF005037
:100DB0000005FE000C000010000101000005D80035
:100DC00044C2005000054000000120000005F20070
:100DD00028C2005020C2005018C200501CC200504F
:100DE0000005FA002DE9F04303460C46E068C0F325
:100DF00040091846FFF7A2FD05460026EB4850F8CB
:100E0000258018E04646E068C0F3000088B9E8484D
:100E100050F82900301AE74951F82910B0FBF1F7D2
:100E2000E54850F829100120B8408143E24840F8D5
:100E30002910D6F80080B8F1000FE3D1002708E0B0
:100E4000DD4850F829000121B940084200D102E0F4
:100E50007F1C202FF4D300BF202F02D10020BDE83B
:100E6000F083D54850F829100120B8400143D248FA
:100E700040F82910CE4850F82900CE4951F82910E1
:100E800007FB010856B1E068C0F3000030B1C6F8B6
:100E90000080706840F00400706005E0C34840F8CE
:100EA0002580C64840F82580002048F8040BE068FB
:100EB000C0F38000E168C1F3400140EA0110E1881D
:100EC00040EA4110A18840EA014048F8040B20683C
:100ED00048F8040BE068C0F30720000248F8040B50
:100EE000B9F1000F02D0A068C8F800000120B6E7F1
:100EF00000B503461846FFF721FD01218140B048A7
:100F0000016000BD00B503461846FFF717FD01213B
:100F10008140AC48016000BD30B503461846FFF77C
:100F20000DFDA64951F820500DB9002030BDEC68E8
:100F3000C4F343000A2812D2DFE800F00507090BCA
:100F4000111111110D0F0120F0E70220EEE703202F
:100F5000ECE70520EAE70420E8E70620E6E74FF69D
:100F6000FF70E3E730B503461846FFF7E7FC934907
:100F700051F8204014B94FF0FF3030BDA568284625
:100F8000FBE730B503461846FFF7D8FC8B4951F80C
:100F9000205015B94FF0FF3030BDEC68200CFBE756
:100FA00000B58948FFF7D2FC8848FFF718FD0346D3
:100FB0008648FFF714FD43EA0023184600BD2DE9DB
:100FC000F0478348046814F0080F1CD008208149BA
:100FD00008608148FFF7BAFC8048FFF700FD05462E
:100FE00015F0100F03D0FFF71FFD00F00FF915F0FB
:100FF000080F07D015F0040F02D0FFF7BEFD01E087
:10100000FFF7BCFDD0E014F0010F01D000F002F9B1
:1010100014F0040F49D04FF000097148D0F8308225
:1010200000263CE0C84500D13BE00120B04010EA7A
:10103000080F32D00120B04040EA090977080120AA
:10104000B0406849086000BF6148006810F0200F98
:10105000FAD06548056816F0010F15D156B915F09C
:10106000040F07D06148006820B160480168012082
:10107000884713E05D4850F8270070B15B4850F88E
:1010800027100220884708E0584850F8270020B170
:10109000564850F827100320884700BF761C202EA2
:1010A000C0D300BF04204B4908605148006810F0CD
:1010B000010F24D04F4805684FF002061BE00120C5
:1010C000B040284216D0770816F0010F09D14748E2
:1010D00050F8270070B1454850F82710082088477D
:1010E00008E0424850F8270020B1404850F8271047
:1010F00009208847761C202EE1D33F4805603C48F4
:10110000006810F0020F24D03C4805684FF002063A
:101110001BE00120B040284216D0770816F0010FDE
:1011200009D1324850F8270070B1304850F82710E4
:101130000A20884708E02D4850F8270020B12B48A6
:1011400050F827100B208847761C202EE1D32C481E
:1011500005602748006810F0040F24D0294805686E
:101160004FF002061BE00120B040284216D077085D
:1011700016F0010F09D11D4850F8270070B11B4827
:1011800050F827100C20884708E0184850F827002E
:1011900020B1164850F827100D208847761C202EC5
:1011A000E1D31948056000BFBDE8F087B00000102A
:1011B000C82B0000D02B00003400001000000820D5
:1011C00088C200508CC200500005F5000002F500F6
:1011D00000C2005008C200500005FE000002FE00E0
:1011E00000C0005038C2005014C20050D82B00007C
:1011F00090C20050A0C20050A4C20050ACC2005027
:10120000B0C20050B8C20050BCC2005010B5FFF7C9
:10121000A7F910BD7047704770471FB5044614F01A
:10122000080F2AD00320FFF79DFE2B4909682B4A9F
:101230001288022303FB0211884217D02748008836
:1012400080302649088008460088C0F309000880DD
:101250000846008822490988401AC0F30900B0F501
:10126000007F0AD101201F49087006E000201D49B7
:1012700008701A4800881A4908800A20F0B11648F8
:10128000006816490988022202FB01000090042030
:10129000ADF804000020ADF8060013480068029085
:1012A00000200390039820F00200801C0390694600
:1012B0000320FFF797FD0320FFF71AFE1FBD7047BD
:1012C0007047704770477047704770477047704766
:1012D000704770477047000044000010560000102F
:1012E000540000105800001040000010AD4909687B
:1012F00041F08071AB4A116000BFAA49486810F004
:10130000004FFAD0096821F08071A64A1160F821D7
:1013100001EA1021082202EAD0121144A24A1180E7
:10132000704770B5A1480078002850D1A0484068A7
:1013300020F470109E4948600846406840F4101040
:1013400048600846C06840F04040C860994800685E
:1013500040F480509849C1F8C40098489149086009
:101360004FF400409649086096480068C0F3810435
:1013700034B1012C08D0022C09D0032C0BD000BFB3
:101380009148006885080AE08F48056807E08E48A4
:101390000068450803E08C480068C50800BF00BF2E
:1013A0004FF4FA40B5FBF0F0401E4FF04021886149
:1013B000032048610120486000F0E8F8FFF789FB4E
:1013C0000120FFF7CCFB0120784908706BE07F48D3
:1013D0000078002836D07E4800687E49098830F9B8
:1013E00011307D4800887B490988401AC0F3090400
:1013F000B4F5607F04D177480088401C75490880A7
:10140000802C04D973480088401C724908807148B8
:101410000088C0F309006F490880002B05DA6F4887
:101420000068C01A6D49086004E06C480068184400
:101430006A4908606A48006843431B1403F5004387
:101440009BB201E04FF400436648007808B14FF4C6
:1014500000434FF6C070184059490860624801685F
:101460000068401C604A10608805800D1AD1FFF7A3
:101470003DFF5E480088B0F5004F03D10020584979
:10148000086006E05948008847490988484354499C
:10149000086052480068030D002050490860072B7F
:1014A00000DD072300BF00214FF0402000F0A1FC29
:1014B00070BD00B585B001208DF80C000A200490A5
:1014C00000208DF8000001208DF801008DF8030048
:1014D00000208DF8020003208DF804000420029003
:1014E00003AA00214FF0402000F0E1FC69464FF0D4
:1014F000402000F0DBFD00BF0120002806DA0920B3
:10150000C0003B4A6FF00201505404E00920C000C3
:1015100038490122885400BF012000F037F801212A
:101520004FF0402000F084FD05B000BD1CB5022046
:101530008DF8020000208DF804008DF803001A20B9
:101540008DF8010000208DF80000684600F08DFB4A
:101550001B4800F0B5FA1CBD08B5FEF7D1FE00230C
:101560000093012308224FF4E131022000F0BEF97C
:1015700021A1022000F07CFAFFF7D8FFFFF799FFC6
:101580004FF000002049086000BFFEE700F01F0296
:101590000121914042094FF0E02303EB8202C2F89F
:1015A00000117047004003405A0000103C0000103A
:1015B00000C00240C4C00F4000C00F402004200003
:1015C00000C00840A8C10F400000001058000010E3
:1015D0004400001054000010560000105C00001081
:1015E000500000104E0000106000001008000010B5
:1015F00018ED00E000E400E05374617274202E20C6
:101600002E202E200D0A00004800001030B50024C6
:10161000F74D2C704C1F2D782C43F54D2C70551E1A
:101620000224AC40F24D2D782C43F14D2C7023B1A7
:10163000012B09D0022B15D10DE0ED4C247844F09C
:101640000304EB4D2C700DE0E94C247844F01804B1
:10165000E74D2C7006E0E64C247844F00604E44D97
:101660002C7000BF00BF30BDF0B504460D461646D5
:101670001F463B46324629462046FFF7C7FFDD4856
:1016800000688008DC490860DC48006840F00070B1
:10169000DB49C1F8C4000846D0F8AC0120F4402072
:1016A000C1F8AC010846D0F8AC01C1F8AC01D5488E
:1016B000006820F00F00D34908600846006840F039
:1016C0000A0008604FF08300CF490873CA490868D0
:1016D0004FEAE07100EB11714FEA211191FBF4F137
:1016E000CA4A1160104600684FEA1020C6490871C6
:1016F000104600680870BE48007808734FF0070075
:101700000872F0BDF0B504460D4616461F463B462E
:10171000324629462046FFF779FFB6480068800820
:10172000B5490860B548006840F08070B449C1F818
:10173000C4000846D0F8AC0120F44030C1F8AC0138
:101740000846D0F8AC01C1F8AC01AE48006820F4FE
:101750007000AC4908600846006840F4A0000860CA
:101760004FF08300AA490873A34908684FEAE07163
:1017700000EB11714FEA211191FBF4F1A34A1160C2
:10178000104600684FEA1020A14908711046006811
:1017900008709748007808734FF007000872F0BD92
:1017A000F0B504460D4616461F463B4632462946CE
:1017B0002046FFF72BFF8F48006880088E4908609D
:1017C0008E48006840F010008D49C1F8C4000846FA
:1017D000D0F8A80120F44070C1F8A8010846D0F85C
:1017E000A801C1F8A8018748006820F04040854959
:1017F00008600846006840F080400860084640687D
:1018000020F00C0048600846406840F00100486045
:101810004FF083007F490873774908684FEAE07109
:1018200000EB11714FEA211191FBF4F1774A11603D
:10183000104600684FEA102076490871104600688B
:1018400008706B48007808734FF007000872F0BD0D
:10185000F0B504460D4616461F463B46324629461D
:101860002046FFF7D3FE634800688008624908609D
:101870006248006840F008006149C1F8C4000846A9
:10188000D0F8A80120F0C000C1F8A8010846D0F89F
:10189000A801C1F8A8015B48006820F0F000594990
:1018A00008600846006840F0500008604FF0830070
:1018B00059490873504908684FEAE07100EB11710B
:1018C0004FEA211191FBF4F1504A11601046006873
:1018D0004FEA1020504908711046006808704448CB
:1018E000007808734FF007000872F0BD2DE9F04151
:1018F00004460D4616461F46DDF8188034B1012C0B
:101900000BD0022C10D0032C1CD114E043463A46D5
:1019100031462846FFF79CFF14E043463A463146DD
:101920002846FFF73DFF0DE043463A46314628463C
:10193000FFF7E8FE06E043463A4631462846FFF701
:1019400093FE00BF00BFBDE8F08100BF2E49097DB6
:1019500011F0200FFAD02C490870704700BF2C49B5
:10196000097D11F0200FFAD029490870704700BF97
:101970002849097D11F0200FFAD0264908707047D8
:1019800000BF2549097D11F0200FFAD022490870C7
:10199000704700B502460B4632B1012A08D0022A30
:1019A0000AD0032A10D10BE01846FFF7E9FF0BE03D
:1019B0001846FFF7DCFF07E01846FFF7CFFF03E00C
:1019C0001846FFF7C2FF00BF00BF00BD00BF0E49B1
:1019D000097D11F0010FFAD00B490878704700BF5C
:1019E0000B49097D11F0010FFAD0094908787047B9
:1019F0006C0000100400001064000010C4C00F4010
:101A000000C00F4000C0024000C009406800001044
:101A1000008009400000014000C0004000BF1B4999
:101A2000097D11F0010FFAD018490878704700BFFE
:101A30001749097D11F0010FFAD015490878704750
:101A400000B5024632B1012A07D0022A08D0032A83
:101A50000CD108E0FFF7EBFF00BDFFF7DFFFFBE76E
:101A6000FFF7BDFFF8E7FFF7B1FFF5E70020F3E769
:101A700070B504460E46002504E0715D2046FFF770
:101A800088FF6D1C705D0028F7D170BD000001401B
:101A900000C0004070B505460C460CB1012C00D1C9
:101AA00003E05E212FA0FEF7EFFB286820F48030D2
:101AB0002860012C03D1286840F48030286070BD74
:101AC00010B504463448844200D103E03E2125A0ED
:101AD000FEF7DAFB00213048FFF7DCFF10BD70B5E0
:101AE00004460E462C48844200D103E04E211DA03E
:101AF000FEF7CAFB206800F48035C6F3090045EA0A
:101B00008015256070BD70B504460D46224884429C
:101B100000D103E0712113A0FEF7B6FB606820F04E
:101B20000F006060287818B1606840F002006060C3
:101B3000687818B1606840F004006060A87818B157
:101B4000606840F00800606070BD70B504460D46E6
:101B50001148844200D103E0832102A0FEF794FBE8
:101B6000258170BD4C504331373030434D5349537C
:101B70005F4669726D776172655F4C69627261720E
:101B8000795C736F757263655C6C706331377878FC
:101B90005F6461632E63000000C00840F0B50B462F
:101BA00044003B4D1946102B01D3103B641C55F8E3
:101BB00024604FEA430C032707FA0CF7BE4345F8AD
:101BC000246055F824605F0002FA07F73E4345F8A9
:101BD0002460F0BDF0B50B4644002D4D403519464C
:101BE000102B01D3103B641C55F824604FEA430CC2
:101BF000032707FA0CF7BE4345F8246055F8246024
:101C00005F0002FA07F73E4345F82460F0BD30B5A7
:101C10001F4B6833012A07D153F8204001258D401E
:101C20002C4343F8204006E053F8204001258D4026
:101C3000AC4343F8204030BD012806D11449896ADD
:101C400041F00801124A916206E028B91049896AF8
:101C500021F008010E4A91627047012800D1052247
:101C600001B90A220A4BDA67704710B50446A27818
:101C700061782078FFF792FFE27861782078FFF7AB
:101C8000A9FF227961782078FFF7C1FF10BD00001D
:101C900000C0024070B5054635B1012D09D0022DB6
:101CA0000CD0032D14D10EE0022000F07BFB044683
:101CB0000EE0042000F076FB044609E02C2000F042
:101CC00071FB044604E02E2000F06CFB044600BFCC
:101CD00000BF204670BD7FB504460D462046FFF785
:101CE000D9FF06460020CDE90260DDE90201A5FB2F
:101CF000000205FB0121CDE90001FDA00CC8009800
:101D000000F0BAFBCDE90201029804B070BD0146B3
:101D1000B1F1402F01D100200DE0F74A914201D1ED
:101D2000012008E0F54A914201D1022003E0F44A83
:101D3000914200D10320704770B504460E46B4F1BD
:101D4000402F08D0EC48844205D0EC48844202D0B1
:101D5000EB48844200D103E0A621EAA0FEF794FA02
:101D60004EB1012E07D0022E05D0032E03D0042E33
:101D700001D0052E00D103E0A721E2A0FEF784FAEE
:101D800021680120B0400140CDB20DB1012070BDED
:101D90000020FCE770B504460E46B4F1402F08D091
:101DA000D548844205D0D548844202D0D4488442E4
:101DB00000D103E0C421D3A0FEF766FA4EB1012E94
:101DC00007D0022E05D0032E03D0042E01D0052EFD
:101DD00000D103E0C521CBA0FEF756FA2068311DE3
:101DE00001228A401040C5B20DB1012070BD002013
:101DF000FCE770B504460D46B4F1402F08D0BE484C
:101E0000844205D0BD48844202D0BD48844200D1FE
:101E100003E0DD21BBA0FEF737FA4DB1012D07D05D
:101E2000022D05D0032D03D0042D01D0052D00D1A6
:101E300003E0DE21B3A0FEF727FA0120A8402060CE
:101E400070BD70B505460C46B5F1402F08D0AA48C4
:101E5000854205D0A948854202D0A948854200D1D3
:101E600003E0F421A7A0FEF70FFA4CB1012C07D034
:101E7000022C05D0032C03D0042C01D0052C00D15A
:101E800003E0F5219FA0FEF7FFF9201D012181400D
:101E9000296070BD28B90A460123114613705360AA
:101EA00004E00A4600231146537000BF70472DE935
:101EB000F04704460E461546B4F1402F08D08E4830
:101EC000844205D08D48844202D08D48844200D19E
:101ED00004E040F22B118BA0FEF7D6F91EB1012EC3
:101EE00001D000D000D104E04FF4967185A0FEF738
:101EF000CBF9B4F1402F08D10121022000F06FFA94
:101F00000021022000F00AFA22E07B48844208D136
:101F10000121042000F063FA0021042000F0FEF902
:101F200016E07648844208D10121880500F057FA6E
:101F300000212C2000F0F2F90AE07148844207D118
:101F40000121C80500F04BFA00212E2000F0E6F92F
:101F5000A06A20F00300A062A06AA0620020A06036
:101F60002061E060606840F002006060606820F01E
:101F7000020060608EB92F463D46387818B97868FF
:101F8000401EE06017E02046FFF7C1FE81467968F9
:101F9000FFF7A1FE401EE0600DE0A846A06A20F019
:101FA0000C00A062454698F80100012803D1A06A00
:101FB00040F00400A0624FF0FF302060BDE8F087E1
:101FC00010B50446B4F1402F08D04B48844205D0E8
:101FD0004A48844202D04A48844200D104E040F298
:101FE000791148A0FEF750F900206060B4F1402F4D
:101FF00004D10021022000F0F2F918E03E488442AA
:1020000004D10021042000F0EAF910E03B488442AA
:1020100005D100214FF4800000F0E1F907E03848D5
:10202000844204D100214FF4800000F0D8F910BDA3
:1020300070B504460D46B4F1402F08D02E488442B6
:1020400005D02E48844202D02D48844200D104E0BD
:102050004FF4CD712BA0FEF717F9012D04D1606864
:1020600040F00100606003E0606820F00100606003
:1020700070BD10B50446B4F1402F08D01E4884420C
:1020800005D01E48844202D01D48844200D104E09D
:102090004FF4D9711BA0FEF7F7F8606840F002001A
:1020A0006060606820F00200606010BD70B504469A
:1020B0000D46B4F1402F08D00F48844205D00F4898
:1020C000844202D00E48844200D104E040F2D11193
:1020D0000CA0FEF7D9F8287940B12879012805D05D
:1020E0002879022802D02879032827D12CE0000083
:1020F00040420F0000000000008000400000094046
:10210000004009404C504331373030434D53495320
:102110005F4669726D776172655F4C696272617268
:10212000795C736F757263655C6C70633137787856
:102130005F74696D65722E63000000004FF4E971F1
:10214000AFF24000FEF7A0F8287830B1012807D0A0
:10215000022808D003280CD108E0A868A0610AE092
:10216000A868E06107E0A868206204E0A8686062EF
:1021700001E000BFFEE700BF6169287800EB400284
:102180000720904081436161687838B1616928789F
:1021900000EB40020120904001436161E87840B1CA
:1021A0006269287800EB4000401C012181400A430D
:1021B0006261A87840B16269287800EB4000801C19
:1021C000012181400A436261E06B2978042202EB1D
:1021D0004102032191408843E063287900F0030025
:1021E0002978042202EB41018840E16B0843E06357
:1021F00070BD70B504460E461546B4F1402F08D0A8
:102200004348844205D04348844202D04248844235
:1022100000D105E040F20721AFF21810FEF734F8C4
:1022200036B1012E06D0022E06D0032E08D105E0CD
:10223000A56107E0E56105E0256203E0656201E074
:1022400000BFFEE700BF70BD70B504460D46B4F197
:10225000402F08D02E48844205D02E48844202D018
:102260002D48844200D105E040F22D21AFF26C10E0
:10227000FEF70AF8A16A287800EB40020720904098
:102280008143A162687838B1A16A287800EB4002E6
:10229000012090400143A162A87840B1A26A287849
:1022A00000EB4001491C012088400243A262E8780B
:1022B00040B1A26A287800EB4001891C01208840C7
:1022C0000243A26270BD70B504460D46B4F1402FC2
:1022D00008D00F48844205D00E48844202D00E48F0
:1022E000844200D105E04FF41271AFF2E810FDF71F
:1022F000CBFF0DB1012D00D105E040F24921AFF235
:10230000FC10FDF7C1FF0DB9E06A70BD206BFCE762
:1023100000800040000009400040094010B520281E
:1023200001D2034601E0A0F120031A46202814D26E
:10233000494B1C684FF0030303FA02F324EA030439
:10234000464BC3F8A841444B1C6801FA02F344EA27
:102350000304424BC3F8A84113E0414B1C684FF003
:10236000030303FA02F324EA03043C4BC3F8AC4131
:102370003B4B1B6801FA02F443EA0403374CC4F8F0
:10238000AC3110BD0146202903D20A46324B1868F1
:1023900003E0A1F12002324B186820FA02F303F0A7
:1023A0000300704770B504462E4805682046FFF7C5
:1023B000E9FF064636B1012E06D0022E06D0032EC6
:1023C00008D105E0042605E0012603E0022601E02D
:1023D000082600BF00BFB5FBF6F5284670BD0129F1
:1023E0000AD1214A1368214A00EA020243EA0203A1
:1023F0001A4AC2F8C4300AE049B91B4A13681B4A9A
:1024000022EA000203EA0203144AC2F8C430704709
:1024100000201749086030BF704704201549086044
:102420004FF008000D49C1F8C00030BF70470420CC
:10243000104908604FF009000849C1F8C00030BFDA
:10244000704704200B4908604FF003000349C1F8AE
:10245000C00030BF70470000A8C10F4000C00F404F
:10246000ACC10F4004000010C4C00F40DEF7EFEF16
:10247000C0C00F4010ED00E053EA020C00F069808C
:102480002DE9F04B4FF00006002B1FBFB3FA83F588
:1024900003FA05F424FA05F65E4012BF1643B2FAB9
:1024A00082F502FA05F4C5F120051EBF22FA05FCEB
:1024B00044EA0C04203556EA044C4FEA144418BF91
:1024C000641C4FF000084FF00009904271EB030CC0
:1024D00039D3002919BFB1FA81F701FA07F6B0FA2A
:1024E00080F700FA07F6C7F120071EBF20FA07FCA5
:1024F00046EA0C062037B6FBF4FCA7EB0507103FB5
:1025000007F01F0BCBF120060CFA0BFB2CFA06F69A
:1025100044BFB3460026202FA4BF5E464FF0000BF9
:102520005BEA060C08BF4FF0010B19EB0B09ABFB84
:10253000027C48EB0608C01B06FB02CC0BFB03CC5D
:1025400071EB0C01C1E70B46024641464846BDE827
:10255000F08B13B54FF000004FF00001AFF3008097
:10256000BDE81C407047000003494FF01800ABBEA7
:1025700070470000090000002600020070470000BC
:1025800010B528480078C0F3040010B101283ED1EE
:102590003AE02448C078012804D0022807D0032854
:1025A0002ED118E02048214C206012232AE0204937
:1025B000002204E0087808B148880144521C1948F8
:1025C00080789042F6D1087808B9002010BD1748ED
:1025D00001604B8816E01749002204E0087808B132
:1025E00008780144521C0F4880789042F6D1087850
:1025F00008B90020EAE70D4801600068037801E0AF
:102600000020E3E700BF04E000BF0020DEE7002079
:10261000DCE700BF05488088984201D9034CA380BD
:102620000120D3E72C000010DE2A00002400001057
:10263000F02A00005E2B000027480078C0F3040059
:1026400020B1012806D0022841D116E02348244BAE
:1026500018603EE02348007860B11F480079224BA3
:102660001B78984206DA0020204B188018461C4B35
:10267000186001E0002070472BE01748007900F057
:102680008F0111F0800F05D001F00F034FF480305F
:10269000984001E00120884002461248007810B9B5
:1026A00011F00F0F10D11248006810420CD01148E1
:1026B0000068104201D0012000E000200B4B188080
:1026C0001846074B186001E00020D4E701E0002025
:1026D000D1E700BF0120CEE72C0000100C00001055
:1026E000240000100F0000101C00001070000010EB
:1026F000100000101400001070B504463348007834
:10270000C0F3040020B101281DD0022858D11CE0DC
:102710002E484088012813D144B1FEF73BFA2C48DB
:10272000008840F002002A4908800BE00020FEF7F4
:1027300031FA2748008820F002002549088001E08E
:10274000002070BD3EE00020FBE72048007900F04B
:102750008F0515F0800F05D005F00F014FF4803084
:10276000884001E00120A84006461A48007820B3BE
:1027700015F00F0F21D01848006830421DD01348C3
:102780004088C0B944B12846FEF76AFA1348006889
:1027900030431249086012E011480068304201D00D
:1027A0000120CEE72846FEF768FA0C480068B043DF
:1027B0000A49086003E00020C3E70020C1E701E008
:1027C0000020BEE700BF0120BBE700002C00001086
:1027D0000C0000100F00001010000010140000107A
:1027E000180000102DE9F041002763480078C0F37D
:1027F000040000287ED16048807800287BD05F4CA0
:102800007EE06078022804D0042851D0052870D1D9
:1028100050E0607958498978884245D15648807897
:1028200057490870207957490870002503E00020B7
:10283000554948556D1C042DF9D3012514E001209C
:10284000A84052490968084202D02846FEF7EEF92E
:102850004FF48030A8404D490968084203D045F044
:102860008000FEF7E3F96D1C102DE8D34FF0011046
:102870004649086000204649086046490860012032
:10288000FEF789F9E07910F0400F06D04248008841
:1028900040F001004049088009E03F48008820F0EE
:1028A00001003D49088002E06088044428E020E0FF
:1028B000E7781EE0E7B9A07800F08F0515F0800FEB
:1028C00005D005F00F014FF48030884001E0012071
:1028D000A84006462D48006830432C490860204631
:1028E000FEF774F92846FEF794F92846FEF7ABF98F
:1028F00000BF01E03AE008E000BF2078044400BFD8
:10290000207800287FF47DAF26E000201C49087065
:10291000012514E00120A8401C490968084202D0A2
:102920002846FEF783F94FF48030A840174909681C
:10293000084203D045F08000FEF778F96D1C102D99
:10294000E8D34FF0011011490860002010490860D9
:1029500010490860FEF71FF9074880780849097890
:10296000884202D00020BDE8F08101E00020FAE7B3
:1029700000BF0120F7E700002C000010F02A000043
:102980000F0000101C0000101D00001010000010AF
:1029900014000010180000100C0000102DE9F05F6A
:1029A000002500260027A84643480078C0F304000D
:1029B00001287BD14148007810B90020BDE8F09F84
:1029C0004FF0000B3E4C6CE06078022804D00428E5
:1029D0000BD0052861D11BE060793849097888421D
:1029E00002D0608804445CE057E0A578E6784FF0B8
:1029F000000831480079A84209D12F488078B042B8
:102A000005D14FF0010B2F48475D01464E5544E07C
:102A100029480079A8423FD1A07800F08F0919F029
:102A2000800F05D009F00F014FF48030884002E09C
:102A3000012000FA09F082461F488078B04217D181
:102A40002148006840EA0A001F4908601F480068E2
:102A500020EA0A001D4908602046FEF7B7F84846FC
:102A6000FEF7D7F84846FEF7EEF848EA0A0813E002
:102A7000BE4211D118EA0A0F0ED11348006820EAAD
:102A80000A00114908601148006820EA0A000F494D
:102A900008604846FEF7CAF800BF00BF207804442B
:102AA00000BF207800288FD102E0FFE7002085E7F3
:102AB00000BF584682E700002C0000100F000010F5
:102AC000F02A00001D00001010000010140000107B
:102AD00010B5FDF70DFC4FF00001016010BD1201B3
:102AE000000200000040C91F024000010102030172
:102AF00009026D000201008032090400000001019A
:102B000000000924010001270001010C2402010139
:102B10000100010000000009240602010103000079
:102B2000092403030103000200090401000001025B
:102B30000000090401010101020000072401010154
:102B400001000B24020101021001007D00090503B0
:102B500001400001000007250100000000000403FF
:102B600009041C034E00580050002000530065006B
:102B70006D00690063006F006E00640020002E038A
:102B80004D006F00680061006D006D006100640021
:102B90002000480061007300730061006E00200097
:102BA0004C006F0074006600690020001A03560094
:102BB000310030002E003000300030003000300096
:102BC0003000300030000000800008208001082024
:102BD0001000000014000000FF05000000000000CD
:102BE000000000001B1200000000000000000000B8
:102BF00000000000000000000000000000000000D5
:102C000000000000000000000000000000000000C4
:102C10000000000000000000482C00000000001030
:102C20007000000008010000B82C000070000010C7
:102C30002003000024010000B82C00000000082040
:102C4000200200002401000000093D0000E1F5051C
:102C50000001000000000000000000000000000073
:102C60000000000000000000000000000000000064
:102C70000000000000000000000000000000000054
:102C800000000000000000002002082030020820A0
:102C90000000000000000000000000000000000034
:102CA0000000000000000000000000000000000024
:082CB00000000000000000001C
:04000005000000CD2A
:00000001FF
